:100000000C943E000C9453000C9453000C94530039
:100010000C9453000C9453000C9453000C94530014
:100020000C9453000C9453000C9453000C94530004
:100030000C9453000C9453000C9453000C945300F4
:100040000C9453000C9453000C9453000C945300E4
:100050000C9453000C9453000C9453000C945300D4
:100060000C9453000C9453000C9453000C945300C4
:100070000C9453000C9453000C94530011241FBE95
:10008000CFEFD0E1DEBFCDBF11E0A0E0B1E0ECE109
:10009000F1E002C005900D92AA30B107D9F70E9495
:1000A00055000C948C000C940000CF93DF93CDB7D7
:1000B000DEB72A970FB6F894DEBF0FBECDBF8FEF25
:1000C00081B917B888B98AE0E0E0F1E0DE01119665
:1000D00001900D928A95E1F790E02AE0309BFECFE7
:1000E00081E0890F622F0E948000E1E0F0E0EC0FD8
:1000F000FD1FE90FF11D808182B93099FECFEECF4F
:10010000991B79E004C0991F961708F0961B881F69
:0C0110007A95C9F780950895F894FFCF08
:0A011C00FC60DAF266B6BEE0FEE613
:00000001FF
