:100000000C943E000C9448000C9448000C9448005A
:100010000C9448000C9448000C9448000C94480040
:100020000C9448000C9448000C9448000C94480030
:100030000C9448000C9448000C9448000C94480020
:100040000C9448000C9448000C9448000C94480010
:100050000C9448000C9448000C9448000C94480000
:100060000C9448000C9448000C9448000C944800F0
:100070000C9448000C9448000C94480011241FBEB6
:10008000CFEFD0E1DEBFCDBF0E947F000C94930084
:100090000C94000080EB84B981E58CBD08958EBD81
:1000A0000DB407FEFDCF08950DB407FEFDCF8EB54C
:1000B000089588E00C944F0084E00C944F0088E190
:1000C0000C944F0084E10C944F00CF93C82F80E034
:1000D0000E944F008C2FCF910C944F00CF93C82FCC
:1000E00080E10E944F008C2FCF910C944F000E9412
:1000F0004A0080E00E94650080E00C946E000E943F
:100100007700C0E0CF3F29F480E00E946500C0E0A6
:1001100002C00E945C00CF5F87EB9BE00197F1F784
:0A01200000C00000EFCFF894FFCFFD
:00000001FF
