:100000000C943E000C9453000C9453000C94530039
:100010000C9453000C9453000C9453000C94530014
:100020000C9453000C9453000C9453000C94530004
:100030000C9453000C9453000C9453000C945300F4
:100040000C9453000C9453000C9453000C945300E4
:100050000C9453000C9453000C9453000C945300D4
:100060000C9453000C9453000C9453000C945300C4
:100070000C9453000C9453000C94530011241FBE95
:10008000CFEFD0E1DEBFCDBF11E0A0E0B1E0E0EF07
:10009000F2E002C005900D92AA30B107D9F70E9494
:1000A000AC000C9476010C940000109A8FE697E156
:1000B0000197F1F700C000001098089520E030E0AB
:1000C0002817390749F0E7EBFBE03197F1F700C05B
:1000D00000002F5F3F4FF4CF0895AF92BF92CF92B1
:1000E000DF92EF92FF920F931F93CF93DF93C82F6E
:1000F000D62F6A01F22E211102C0FF24FA9480ED5E
:10010000A82E87E0B82E9AE0E92E0C2F10E0DD2310
:10011000B9F06D2F70E0C5010E942C01CB010E9447
:100120005E000E945500F601E00FF11F808182B948
:100130008C2F8F0D6E2D0E942001C92FD150E5CF3D
:10014000C801DF91CF911F910F91FF90EF90DF9049
:10015000CF90BF90AF900895CF93DF93CDB7DEB728
:100160002A970FB6F894DEBF0FBECDBF8FEF81B9CF
:1001700039983898419A409A8AE0E0E0F1E0DE014F
:10018000119601900D928A95E1F700E010E08AE067
:10019000C82ED12C412C9AEC592E9AE9692E9BE35A
:1001A000792E91E081E0F12C812C912C540122E0F8
:1001B0002F0D253088F526B12270E22E26B1322F80
:1001C0003170332E20FF08C0911106C0E1100FC01E
:1001D00001501109FA9409C0EE2049F0811107C0BD
:1001E000311005C00F5F1F4FF3940E945500C801E6
:1001F000B6010E942C018C01E1E0F0E0EC0FFD1F44
:10020000E80FF91F808182B98FEF881A980AA80A2F
:10021000B80A932D8E2DCBCF11E01F140CF010E0F7
:10022000C301B201A50194010E944001622F212F58
:10023000AE014F5F5F4F802F0E946D008C01B1CFE8
:10024000991B79E004C0991F961708F0961B881F28
:100250007A95C9F78095089597FB072E16F40094B8
:1002600007D077FD09D00E94620107FC05D03EF45B
:10027000909581959F4F0895709561957F4F089552
:10028000A1E21A2EAA1BBB1BFD010DC0AA1FBB1F9A
:10029000EE1FFF1FA217B307E407F50720F0A21B0C
:1002A000B30BE40BF50B661F771F881F991F1A9479
:1002B00069F760957095809590959B01AC01BD01A3
:1002C000CF010895AA1BBB1B51E107C0AA1FBB1F8A
:1002D000A617B70710F0A61BB70B881F991F5A95D2
:1002E000A9F780959095BC01CD010895F894FFCFB2
:0A02F000FC60DAF266B6BEE0FEE63E
:00000001FF
