:100000000C943E000C9453000C9453000C94530039
:100010000C9453000C9453000C9453000C94530014
:100020000C9453000C9453000C9453000C94530004
:100030000C9453000C9453000C9453000C945300F4
:100040000C9453000C9453000C9453000C945300E4
:100050000C9453000C9453000C9453000C945300D4
:100060000C9453000C9453000C9453000C945300C4
:100070000C9453000C9453000C94530011241FBE95
:10008000CFEFD0E1DEBFCDBF11E0A0E0B1E0E0E214
:10009000F1E002C005900D92A433B107D9F70E9498
:1000A0007B000C948E000C9400001092C5008DE42F
:1000B0008093C40088E18093C10086E08093C200F1
:1000C00008958091C00087FFFCCF8091C6000895FD
:1000D0009091C00095FFFCCF8093C6000895CF9308
:1000E000DF93EC018991882319F00E946800FACF10
:1000F000DF91CF9108950E94550080E091E00E9429
:100100006F000E946100C82F86E191E00E946F009D
:100110008C2F0E9468008FE291E0F1CFF894FFCF1E
:1001200048656C6C6F2066726F6D20496C204D6164
:1001300074746F0A0D00596F752073656E742074A6
:1001400068652063686172616374657220270027A7
:040150000A0D000094
:00000001FF
