:100000000C943E000C9448000C9448000C9448005A
:100010000C9448000C9448000C9448000C94480040
:100020000C9448000C9448000C9448000C94480030
:100030000C9448000C9448000C9448000C94480020
:100040000C9448000C9448000C9448000C94480010
:100050000C9448000C9448000C9448000C94480000
:100060000C9448000C9448000C9448000C944800F0
:100070000C9448000C9448000C94480011241FBEB6
:10008000CFEFD0E1DEBFCDBF0E944A000C946000EC
:100090000C940000279A2F9A2FE789EA93E02150C9
:1000A00080409040E1F700C000002F982FE785EFD7
:1000B00090E2215080409040E1F700C00000EBCF7B
:0400C000F894FFCFE2
:00000001FF
